:020000040800F2
:10000000A04B002021020008BD040008B504000830
:10001000B90400083103000843060008000000008E
:10002000000000000000000000000000E1040008E3
:100030009503000800000000BF0400083902000812
:100040003B0200083B0200083B0200083B0200089C
:100050003B0200083B0200083B0200083B0200088C
:100060003B0200083B0200083B0200083B0200087C
:100070003B0200083B0200083B0200083B0200086C
:100080003B020008350300083B0200083B02000861
:100090003B0200083B0200083B0200083B0200084C
:1000A0003B0200083B0200083B0200083B0200083C
:1000B0003B0200082D0600083B0200083B02000836
:1000C0003B0200083B0200083B0200083B0200081C
:1000D0003B0200083B0200083B0200083B0200080C
:1000E0003B0200083B0200083B02000800F002F857
:1000F00000F03AF80AA090E8000C82448344AAF188
:100100000107DA4501D100F02FF8AFF2090EBAE885
:100110000F0013F0010F18BFFB1A43F0010318473B
:100120003011000050110000103A24BF78C878C187
:10013000FAD8520724BF30C830C144BF04680C60ED
:10014000704700000023002400250026103A28BF35
:1001500078C1FBD8520728BF30C148BF0B60704739
:100160001FB51FBD10B510BD00F07DF81146FFF79B
:10017000F7FF00F0B3FA00F09BF803B4FFF7F2FFCB
:1001800003BC00F0A3F80000224B19680868B0E82F
:10019000F00F80F30988BFF36F8F4FF0000080F3FA
:1001A00011884EF00D0E70470000000006480068F0
:1001B000006880F3088862B661B6BFF34F8FBFF363
:1001C0006F8F00DF00BF00BF08ED00E0EFF3098094
:1001D000BFF36F8F0F4B1A6820E9F00F106008B55E
:1001E0004FF0BF0080F31188BFF34F8FBFF36F8FC5
:1001F00000F030FE4FF0000080F31188BDE80840A9
:1002000019680868B0E8F00F80F30988BFF36F8FB2
:10021000704700BF10000020EFF30580704700001A
:100220000948804709480047FEE7FEE7FEE7FEE78A
:10023000FEE7FEE7FEE7FEE7FEE7FEE704480549C6
:10024000054A064B70470000CD050008ED00000888
:10025000A0450020A04B0020A0470020A047002080
:10026000704770477047754600F02CF8AE460500A1
:100270006946534620F00700854618B020B5FFF7C1
:10028000DDFFBDE820404FF000064FF000074FF0C3
:1002900000084FF0000B21F00701AC46ACE8C009A4
:1002A000ACE8C009ACE8C009ACE8C0098D467047AD
:1002B00010B50446AFF300802046BDE81040FFF7BC
:1002C0005CBF0000004870473C45002001491820F1
:1002D000ABBEFEE726000200704700001CB50A48CE
:1002E000012100234A02CDE9001008A10A4800F0CC
:1002F00009FE0A48022100230A02CDE9001008A1E4
:100300000A4800F0FFFD1CBD000000207654617318
:100310006B55736572494600B50E00080400002055
:10032000765461736B4C454400000000B90D000821
:1003300000BFFEE710B54FF0007000F015F818B1DF
:100340004FF0007000F002F810BD000000F0805186
:1003500011B10349086001E002494860704700009C
:10036000040402400000024001460020002201F087
:10037000805313B1054B1A6801E0054B1A6802EA75
:1003800001030BB1012000E000207047000402408F
:100390000000024070472DE9F0410246002500268A
:1003A000002000230024002791F803C00CF00F0563
:1003B00091F803C00CF0100CBCF1000F03D091F8C1
:1003C00002C04CEA050591F800C0BCF1000F31D025
:1003D000146800202BE04FF0010C0CFA00F3B1F888
:1003E00000C00CEA03069E4220D183004FF00F0CA0
:1003F0000CFA03F7BC4305FA03FC4CEA040491F839
:1004000003C0BCF1280F06D14FF0010C0CFA00FC20
:10041000C2F814C00AE091F803C0BCF1480F05D13E
:100420004FF0010C0CFA00FCC2F810C0401C082868
:10043000D1D31460B1F800C0BCF1FF0F34DD5468B3
:1004400000202EE000F1080C4FF0010808FA0CF330
:10045000B1F800C00CEA03069E4221D183004FF0A0
:100460000F0C0CFA03F7BC4305FA03FC4CEA040436
:1004700091F803C0BCF1280F05D100F1080C08FA6F
:100480000CF8C2F8148091F803C0BCF1480F07D1F2
:1004900000F1080C4FF0010808FA0CF8C2F81080BF
:1004A000401C0828CED35460BDE8F08141617047FC
:1004B0000161704700BFFEE700BFFEE7704770476D
:1004C00029B1064A92690243044B9A6104E0034A47
:1004D00092698243014B9A6170470000001002400C
:1004E000704710B500F002F810BD00000CB50020F8
:1004F000019000903348006840F480303149086032
:1005000000BF3048006800F4003000900198401CA3
:100510000190009818B90198B0F5A06FF1D1294861
:10052000006800F4003010B10120009001E00020CC
:1005300000900098012843D12348006840F0100043
:10054000214908600846006820F007000860084656
:10055000006840F0020008601A4840681949486085
:100560000846406848600846406840F4806048603B
:100570000846406820F47C1048600846406840F413
:10058000E81048600846006840F08070086000BFCE
:100590000C48006800F000700028F9D00948406855
:1005A00020F00300074948600846406840F0020018
:1005B000486000BF0348406800F00C000828F9D1EB
:1005C0000CBD0000001002400020024010B513488E
:1005D000006840F001001149086008464068104971
:1005E00008400E494860084600680E4908400B491B
:1005F00008600846006820F48020086008464068CB
:1006000020F4FE0048604FF41F008860FFF769FF88
:100610004FF000600449086010BD00000010024067
:100620000000FFF8FFFFF6FE08ED00E010B5012125
:10063000014800F003F810BD00040040CA430282E4
:10064000704700BFFEE7000010B5044624B1012149
:100650000448FFF72DFF03E001210248FFF726FFC2
:1006600010BD0000000C014010B5044624B1022169
:100670000448FFF71DFF03E002210248FFF716FFC1
:1006800010BD0000000C014008B501210820FFF753
:1006900017FF0120ADF8000003208DF802001020A4
:1006A0008DF8030069460C48FFF775FE01210A48E2
:1006B000FFF7FCFE0220ADF8000003208DF80200D9
:1006C00010208DF8030069460348FFF764FE0221FD
:1006D0000148FFF7EBFE08BD000C0140FFF7D4FF17
:1006E000FFF7FCFD00F078FB00BFFEE72DE9F041CD
:1006F00005460E462648076826480068001D00F09B
:10070000A9FA50B92348006890F82C1001208840BD
:1007100021490968814320480160681CD8B9D6B1D5
:100720001E4948681B49096888601A498268096837
:10073000CA6018490968091D82685160154909682D
:10074000091D8160154A134909684A611146096803
:10075000491C11601AE07C190E4800684460BC42D4
:1007600007D20C480168091D0D48006800F096FA90
:100770000CE008480168091D0A48006800F08EFA7C
:1007800009480068844201D207480460BDE8F0814E
:100790002400002010000020280000202801002054
:1007A00018000020140000204000002010B504466E
:1007B00000F08EFA2F480068401C2E4908602E4831
:1007C000006840B92C4804600846006801280DD133
:1007D00000F024F90AE02948006838B92648006882
:1007E000C06AE16A884201D823480460244800684E
:1007F000401C2349086094F82C10012088402149AE
:10080000096808431F490860E16A01EB81011E4A3B
:1008100002EB81014868A0608268E260211D826865
:1008200051608160E16A01EB8101174A02EB8102AC
:100830006261E16A01EB8101134A52F82110491CFF
:10084000E26A02EB8202104B43F8221000F052FAE7
:100850000A48006868B108480068C06AE16A8842CE
:1008600007D24FF0805009490860BFF34F8FBFF3A4
:100870006F8F10BD20000020100000202C000020F1
:100880003C000020280000207400002004ED00E05F
:1008900010B516E000F01CFA0C48C068C468201DB2
:1008A00000F0D8F90A480068401E09490860094864
:1008B0000068401E0749086000F01CFA204600F05E
:1008C0000BF8044800680028E4D110BD1401002092
:1008D000200000201C00002010B50446206B00F012
:1008E00019FA204600F016FA10BD000030B54FF49A
:1008F0008843174800F007042CB1C01D20F0070002
:10090000134C041B1B1B0246124C22600024114D89
:100910006C60D018083820F007000F4C20600024CD
:100920000D4D2D686C600C4D2D682C601146441ADD
:100930004C60094C24680C60084D4C682C60084DD4
:100940004C682C604FF00044064D2C6030BD000018
:100950003C010020540000205C00002064000020C6
:10096000600000207000002000BFFFF791FF0648E4
:1009700000680128F9D94FF0805004490860BFF39E
:100980004F8FBFF36F8FF0E77400002004ED00E09D
:100990002DE9FF5F80460E469146DDE90E7A109CF8
:1009A000A9F10100216B01EB800B2BF0070B86B145
:1009B000002507E0715D04F134004155705D00B918
:1009C00002E06D1C102DF5D300BF0021432001551E
:1009D00002E0002084F83400052F00D30427E762EA
:1009E000201D00F058F904F1180000F054F92461BA
:1009F000C7F10500A06164620020606484F84800CB
:100A000041465846039A00F013F92060BAF1000FEE
:100A100001D0CAF80040BDE8FF9F000010B50024D7
:100A200007E004EB84010F4A02EB810000F026F995
:100A3000641C052CF5D30C4800F020F90B4800F09D
:100A40001DF90B4800F01AF90A4800F017F90A4896
:100A500000F014F90448094908600448084908608E
:100A600010BD000074000020D8000020EC00002021
:100A700000010020140100202801002014000020A3
:100A80001800002010B50146164800E00068036811
:100A90008B42FBD30246436813448B4204D1436824
:100AA0004C682344436001460A464B68134404687B
:100AB000A34211D10C4C03682468A34208D04B68B0
:100AC0000468646823444B6003681B680B6005E09E
:100AD000054B1B680B6001E003680B60884200D087
:100AE000016010BD540000205C000020094800682F
:100AF000006808B9012000E0002020B14FF0FF306D
:100B00000549086005E003480068C06800680249BC
:100B100008607047140000204000002000BFBF2084
:100B200080F31188BFF34F8FBFF36F8F00BF00BFFB
:100B3000FEE700002DE9F04104464FF0000800F008
:100B400081F93548006808B9FFF7D0FE33480068DE
:100B5000204000285BD1B4B104F10800A04212D9B2
:100B6000083404F0070078B104F00700C0F1080071
:100B70002044A04205D904F00700C0F10800044455
:100B800002E0002400E00024002C40D0244800684B
:100B900084423CD8234E3046056801E02E462D683D
:100BA0006868A04202D228680028F7D11A48006875
:100BB00085422CD0306800F10808286830606868E9
:100BC000001B102807D92F196868001B78606C601B
:100BD0003846FFF757FF124968680968081A104934
:100BE00008600846006810490968884203D20C482A
:100BF00000680D4908600949686809680843686029
:100C00000020286009480068401C0849086000F07E
:100C100071FA4046BDE8F0815C00002070000020C1
:100C200060000020540000206400002068000020C4
:100C3000001F4FF080730360001F21F00103036069
:100C4000001F034B03601438026020387047000017
:100C50001D0B000801460A69D1E901309860D1E90D
:100C6000010358605068884201D1886850600020B4
:100C700008611068401E10601068704700F108019C
:100C800041604FF0FF31816000F10801C1600161F6
:100C900000210160704700210161704710B50246D4
:100CA0000B685C1C0CB9106907E002F1080000E059
:100CB0004068446824689C42FAD944684C604C6897
:100CC000A160886041600A611468641C146010BDF2
:100CD00000BFBF2080F31188BFF34F8FBFF36F8F2A
:100CE00000BF03480068401C0149086070470000CD
:100CF0005000002006480068401E0549086008466C
:100D0000006820B9002080F3118800BF00BF704741
:100D10005000002070B506463546FEB1083D2C4611
:100D20000F49606809680840C0B12068B0B90C4933
:100D3000606809688843606000F084F80949606869
:100D400009680844074908602046FFF79BFE0648EB
:100D50000068401C0449086000F0CCF970BD000038
:100D600070000020600000206C00002000204FF088
:100D7000E0210861886102484861072008617047E6
:100D80003F19010070B50446002544B100F05AF83F
:100D900000212046FFF7AAFC00F0ACF905463DB95A
:100DA0004FF0805003490860BFF34F8FBFF36F8F40
:100DB00070BD000004ED00E00DE00120FFF754FCE1
:100DC0004FF4FA70FFF7DEFF0020FFF74DFC4FF401
:100DD000FA70FFF7D7FFF0E71CB5124800210B4669
:100DE0008022CDE9001010A1114800F08BF80446D4
:100DF000012C14D100BFBF2080F31188BFF34F8FA7
:100E0000BFF36F8F00BF4FF0FF300A490860012029
:100E10000949086000200949086000F059F80848AD
:100E200000681CBD4400002049444C4500000000FF
:100E300069090008400000202C0000202400002048
:100E40004800002002480068401C014908607047C3
:100E50004C0000201248006818B1012011490860B8
:100E60001DE000200F4908600F480068B0FA80F0CC
:100E7000C0F11F0101EB81020C4B03EB82004268C1
:100E80005268426000F108024368934202D142680E
:100E9000526842604268D268054B1A6000BF7047D2
:100EA0004C000020340000202800002074000020A6
:100EB000100000200BE00120FFF7C6FB6420FFF7C5
:100EC00061FF0020FFF7C0FB6420FFF75BFFF2E744
:100ED00010B50A48006840F47F00084908600846D9
:100EE000006840F07F400860FFF740FF00200449A1
:100EF0000860FFF75BF9002010BD000020ED00E066
:100F0000500000202DE9FF4F85B0804689461746E6
:100F1000DDE912ABB800FFF70DFE064656B14C20D6
:100F2000FFF708FE04460CB1266304E03046FFF7E5
:100F3000F1FE00E000247CB10020CDE900ABCDE95A
:100F400002403A4649464046089BFFF721FD2046AD
:100F5000FFF72CFC012501E04FF0FF35284609B0D2
:100F6000BDE8F08F2DE9F0410027574800680028C0
:100F70007ED156480068451C544805608DB95448D8
:100F8000D0F8008053480068514908605148C0F8C3
:100F9000008051480068401C4F490860FFF7A6FDDB
:100FA00000BF4E480068854276D300BF48480068BD
:100FB000006808B9012000E0002020B14FF0FF30A8
:100FC0004649086067E042480068C068C4686668CF
:100FD000B54202D2414806605DE06069D4E9021280
:100FE0008A60D4E902214A60211D42688A4201D107
:100FF000E1684160002262610168491E0160A06AE7
:1010000098B1A06AD4E907128A60D4E907214A603E
:1010100004F1180142688A4201D1216A416000222C
:10102000A2620168491E016000BF94F82C100120E3
:1010300088402B490968084329490860E16A01EBA7
:101040008101284A02EB81014868A0608268E26061
:10105000211D826851608160E16A01EB8101214AB2
:1010600002EB81026261E16A01EB81011D4A00E04D
:1010700022E052F82110491CE26A02EB8202194B6D
:1010800043F822101849E06A0968C96A88428DD37A
:1010900001278BE700E000BF13480068C06A00EB3F
:1010A0008000104951F82000012800D901270F487D
:1010B000006800B1012704E00D480068401C0C499D
:1010C00008603846BDE8F0814C0000202400002074
:1010D00014000020180000203800002040000020EC
:1010E00028000020740000201000002034000020A0
:1010F0003000002070B500240026FFF7E9FD4B48C2
:101100000068401E494908600846006800287DD1F3
:1011100047480068002879D05BE04648C068C4684A
:10112000A06AD4E907128A60D4E907214A6004F171
:10113000180142688A4201D1216A41600022A262FC
:101140000168491E01606069D4E902128A60D4E92D
:1011500002214A60211D42688A4201D1E168416052
:10116000002262610168491E016094F82C10012080
:1011700088403149096808432F490860E16A01EB5A
:1011800081012E4A02EB81014868A0608268E2601A
:10119000211D826851608160E16A01EB8101274A6B
:1011A00002EB81026261E16A01EB8101234A52F89C
:1011B0002110491CE26A02EB8202204B43F8221004
:1011C0001F49E06A0968C96A884202D301201D49A3
:1011D00008601848006808B9012000E000200028D5
:1011E0009BD00CB1FFF782FC1748056865B100BFC2
:1011F000FFF7B8FE10B10120124908606D1E002DE6
:10120000F6D10020104908600E4800E009E00068AF
:1012100038B1012630070D490860BFF34F8FBFF387
:101220006F8FFFF767FD304670BD00004C00002057
:101230002000002000010020280000207400002071
:1012400010000020340000203000002004ED00E0F9
:10125000701200080000002074000000280100083F
:10126000E4120008740000202C4B00004401000828
:10127000000000000000000000000000000000006E
:10128000000000000000000000000000000000005E
:10129000000000000000000000000000000000004E
:1012A000000000000000000000000000000000003E
:1012B000000000000000000004000000000000002A
:1012C000AAAAAAAA00000000000000000000000076
:1012D000000000000000000000000000000000000E
:0412E000000000000A
:04000005080000ED02
:00000001FF
